:020000040000FA
:100000000A128A11EE2FFF1B0D2883137F18831706
:100010000008840A0319FF0A080000308A00040857
:10002000840A82070034533465346E346134693491
:0200300000349A
:100AF400831603178901F0308316031386008312CB
:100B0400031386010800F5007508F400063003108D
:100B1400F40DFF3E031D892D730874077F39803E51
:100B24000A128A11B0260A128A1108007E088A0065
:100B34007F0882000A128A1198250A128A118000FD
:100B4400840A04087D0603190034FF0A0319FE0A07
:100B54009C2D831603130811881108128812081398
:100B6400881383120313881528300A128A11B026B9
:100B74000A128A110C300A128A11B0260A128A113A
:100B840001300A128A11B0260A128A1102300A129E
:100B94008A11B0260A128A11080054346534633469
:100BA4006C3461343A3420342034203420342034FA
:100BB4002034203420342034203420342034203491
:100BC4002034203400343134323433344134343436
:100BD40035343634423437343834333443342A34B5
:100BE400303423344434F20083120313081572089A
:100BF400F00004300310F00CFF3E031DFC2D7008C0
:100C0400F100F10E080871060F3971068800881189
:100C14000D30F000F00B0C2E831203138815081509
:100C240072080F39F000F00E080870060F397006CC
:100C3400880088110D30F000F00B1E2E8312031370
:100C440088150800FB007608F9007908FA00760890
:100C5400F9007908F3007B080A128A1185250A1223
:100C64008A114D2E780883120313FF00770884003D
:100C74000A128A1103200A128A110A128A11F5250E
:100C84000A128A110130F7070318F80A0130F90033
:100C94007908FA074D2E780883120313FF007708AA
:100CA40084000A128A1103200A128A11003A031DD1
:100CB4005C2E5D2E342E5E2E08004A3084002030D7
:100CC40083120313C6000408C7001630C800460880
:100CD400840083130008C900C60A47088400490831
:100CE4008000C70AC80B692E0A128A11AB250A12A2
:100CF4008A110A128A117A250A128A11F601013020
:100D0400F7008030F80000300A128A1124260A12F3
:100D14008A118C2E0A128A1130270A128A11831220
:100D24000313C6004608D1005108031D9A2E9B2EBA
:100D3400A02E2030C6004608D100A02EF6014A306D
:100D4400F7000030F80001300A128A1124260A1232
:100D54008A118C2E8C2E0A128A110028F20083121A
:100D6400031308117208F00004300310F00CFF3E66
:100D7400031DB72E7008F100F10E080871060F3933
:100D840071068800881172030319C92ECA2ED12E48
:100D940002307206031DCF2ED02EDB2ED12E03304F
:100DA400F1009730F000F00BD52EF10BD52EDA2E92
:100DB400E02E0D30F000F00BDD2EE02E8312031335
:100DC4008815F0307205F00020307006031DEB2EFC
:100DD400EC2E062F08117208F00004300310F00CFA
:100DE400FF3E031DF02E7008F100F10E0808710695
:100DF4000F397106880088110D30F000F00B002FB8
:100E0400831203138815062F081172080F39F00096
:100E1400F00E080870060F397006880088117203F6
:100E24000319152F162F1D2F02307206031D1B2FB9
:100E34001C2F272F1D2F0330F1009730F000F00BEB
:100E4400212FF10B212F262F2C2F0D30F000F00B2A
:100E5400292F2C2F8312031388150800F101013068
:100E6400831203138600F20104307202031C3B2F29
:100E74003C2F3E2F612F612F1030F000720A442F57
:100E84000310F00DFF3E031D422F700806050319E1
:100E94004C2F4D2F562F7208363E840083130008C2
:100EA400F0007008F100562F0130F0007008F207CE
:100EB40004307202031C5F2F602F3E2F612F02301B
:100EC4008600F20104307202031C692F6A2F6C2F12
:100ED4008F2F8F2F1030F000720A722F0310F00D35
:100EE400FF3E031D702F7008060503197A2F7B2F10
:100EF400842F72083A3E840083130008F0007008BF
:100F0400F100842F0130F0007008F20704307202FF
:100F1400031C8D2F8E2F6C2F8F2F04308600F2012F
:100F240004307202031C972F982F9A2FBD2FBD2FC8
:100F34001030F000720AA02F0310F00DFF3E031DC5
:100F44009E2F700806050319A82FA92FB22F720827
:100F54003E3E840083130008F0007008F100B22FB5
:100F64000130F0007008F20704307202031CBB2F3A
:100F7400BC2F9A2FBD2F08308600F2010430720274
:100F8400031CC52FC62FC82FEB2FEB2F1030F000FA
:100F9400720ACE2F0310F00DFF3E031DCC2F7008F4
:100FA40006050319D62FD72FE02F7208423E84007E
:100FB40083130008F0007008F100E02F0130F00006
:100FC4007008F20704307202031CE92FEA2FC82FBD
:100FD400EB2F7108ED2F080083134630FD00053018
:100FE400FE00CF30FF00203084000A128A119C25B5
:0C0FF4000A128A1183010A128A115F2E72
:04400E00D4E0FFFFFC
:00000001FF
